{
  "_format": "hh-sol-artifact-1",
  "contractName": "StreamingPayment",
  "sourceName": "contracts/StreamingPayment.sol",
  "abi": [
    {
      "inputs": [
        {
          "internalType": "address",
          "name": "_paymentToken",
          "type": "address"
        }
      ],
      "stateMutability": "nonpayable",
      "type": "constructor"
    },
    {
      "anonymous": false,
      "inputs": [
        {
          "indexed": true,
          "internalType": "uint256",
          "name": "movieId",
          "type": "uint256"
        },
        {
          "indexed": true,
          "internalType": "address",
          "name": "creator",
          "type": "address"
        },
        {
          "indexed": false,
          "internalType": "string",
          "name": "ipfsHash",
          "type": "string"
        }
      ],
      "name": "MovieAdded",
      "type": "event"
    },
    {
      "anonymous": false,
      "inputs": [
        {
          "indexed": true,
          "internalType": "address",
          "name": "previousOwner",
          "type": "address"
        },
        {
          "indexed": true,
          "internalType": "address",
          "name": "newOwner",
          "type": "address"
        }
      ],
      "name": "OwnershipTransferred",
      "type": "event"
    },
    {
      "anonymous": false,
      "inputs": [
        {
          "indexed": true,
          "internalType": "address",
          "name": "user",
          "type": "address"
        },
        {
          "indexed": true,
          "internalType": "address",
          "name": "creator",
          "type": "address"
        },
        {
          "indexed": false,
          "internalType": "uint256",
          "name": "amount",
          "type": "uint256"
        },
        {
          "indexed": false,
          "internalType": "uint256",
          "name": "platformFee",
          "type": "uint256"
        }
      ],
      "name": "PaymentProcessed",
      "type": "event"
    },
    {
      "anonymous": false,
      "inputs": [
        {
          "indexed": true,
          "internalType": "address",
          "name": "user",
          "type": "address"
        },
        {
          "indexed": true,
          "internalType": "uint256",
          "name": "movieId",
          "type": "uint256"
        },
        {
          "indexed": false,
          "internalType": "uint256",
          "name": "startTime",
          "type": "uint256"
        }
      ],
      "name": "StreamingStarted",
      "type": "event"
    },
    {
      "anonymous": false,
      "inputs": [
        {
          "indexed": true,
          "internalType": "address",
          "name": "user",
          "type": "address"
        },
        {
          "indexed": true,
          "internalType": "uint256",
          "name": "movieId",
          "type": "uint256"
        },
        {
          "indexed": false,
          "internalType": "uint256",
          "name": "totalAmount",
          "type": "uint256"
        }
      ],
      "name": "StreamingStopped",
      "type": "event"
    },
    {
      "inputs": [],
      "name": "CREATOR_SHARE",
      "outputs": [
        {
          "internalType": "uint256",
          "name": "",
          "type": "uint256"
        }
      ],
      "stateMutability": "view",
      "type": "function"
    },
    {
      "inputs": [],
      "name": "PLATFORM_SHARE",
      "outputs": [
        {
          "internalType": "uint256",
          "name": "",
          "type": "uint256"
        }
      ],
      "stateMutability": "view",
      "type": "function"
    },
    {
      "inputs": [],
      "name": "RATE_PER_HOUR",
      "outputs": [
        {
          "internalType": "uint256",
          "name": "",
          "type": "uint256"
        }
      ],
      "stateMutability": "view",
      "type": "function"
    },
    {
      "inputs": [
        {
          "internalType": "address",
          "name": "_creator",
          "type": "address"
        },
        {
          "internalType": "string",
          "name": "_ipfsHash",
          "type": "string"
        }
      ],
      "name": "addMovie",
      "outputs": [],
      "stateMutability": "nonpayable",
      "type": "function"
    },
    {
      "inputs": [
        {
          "internalType": "uint256",
          "name": "_movieId",
          "type": "uint256"
        }
      ],
      "name": "getStreamingCost",
      "outputs": [
        {
          "internalType": "uint256",
          "name": "",
          "type": "uint256"
        }
      ],
      "stateMutability": "view",
      "type": "function"
    },
    {
      "inputs": [],
      "name": "movieCount",
      "outputs": [
        {
          "internalType": "uint256",
          "name": "",
          "type": "uint256"
        }
      ],
      "stateMutability": "view",
      "type": "function"
    },
    {
      "inputs": [
        {
          "internalType": "uint256",
          "name": "",
          "type": "uint256"
        }
      ],
      "name": "movies",
      "outputs": [
        {
          "internalType": "address",
          "name": "creator",
          "type": "address"
        },
        {
          "internalType": "string",
          "name": "ipfsHash",
          "type": "string"
        },
        {
          "internalType": "bool",
          "name": "isActive",
          "type": "bool"
        }
      ],
      "stateMutability": "view",
      "type": "function"
    },
    {
      "inputs": [],
      "name": "owner",
      "outputs": [
        {
          "internalType": "address",
          "name": "",
          "type": "address"
        }
      ],
      "stateMutability": "view",
      "type": "function"
    },
    {
      "inputs": [],
      "name": "paymentToken",
      "outputs": [
        {
          "internalType": "contract IERC20",
          "name": "",
          "type": "address"
        }
      ],
      "stateMutability": "view",
      "type": "function"
    },
    {
      "inputs": [],
      "name": "renounceOwnership",
      "outputs": [],
      "stateMutability": "nonpayable",
      "type": "function"
    },
    {
      "inputs": [
        {
          "internalType": "uint256",
          "name": "_movieId",
          "type": "uint256"
        }
      ],
      "name": "startStreaming",
      "outputs": [],
      "stateMutability": "nonpayable",
      "type": "function"
    },
    {
      "inputs": [
        {
          "internalType": "uint256",
          "name": "_movieId",
          "type": "uint256"
        }
      ],
      "name": "stopStreaming",
      "outputs": [],
      "stateMutability": "nonpayable",
      "type": "function"
    },
    {
      "inputs": [
        {
          "internalType": "address",
          "name": "newOwner",
          "type": "address"
        }
      ],
      "name": "transferOwnership",
      "outputs": [],
      "stateMutability": "nonpayable",
      "type": "function"
    },
    {
      "inputs": [
        {
          "internalType": "address",
          "name": "",
          "type": "address"
        },
        {
          "internalType": "uint256",
          "name": "",
          "type": "uint256"
        }
      ],
      "name": "userSessions",
      "outputs": [
        {
          "internalType": "uint256",
          "name": "startTime",
          "type": "uint256"
        },
        {
          "internalType": "uint256",
          "name": "lastBillingTime",
          "type": "uint256"
        },
        {
          "internalType": "bool",
          "name": "isActive",
          "type": "bool"
        }
      ],
      "stateMutability": "view",
      "type": "function"
    }
  ],
  "bytecode": "0x60806040523480156200001157600080fd5b5060405162001e4238038062001e428339818101604052810190620000379190620001dc565b620000576200004b620000a660201b60201c565b620000ae60201b60201c565b6001808190555080600260006101000a81548173ffffffffffffffffffffffffffffffffffffffff021916908373ffffffffffffffffffffffffffffffffffffffff160217905550506200020e565b600033905090565b60008060009054906101000a900473ffffffffffffffffffffffffffffffffffffffff169050816000806101000a81548173ffffffffffffffffffffffffffffffffffffffff021916908373ffffffffffffffffffffffffffffffffffffffff1602179055508173ffffffffffffffffffffffffffffffffffffffff168173ffffffffffffffffffffffffffffffffffffffff167f8be0079c531659141344cd1fd0a4f28419497f9722a3daafe3b4186f6b6457e060405160405180910390a35050565b600080fd5b600073ffffffffffffffffffffffffffffffffffffffff82169050919050565b6000620001a48262000177565b9050919050565b620001b68162000197565b8114620001c257600080fd5b50565b600081519050620001d681620001ab565b92915050565b600060208284031215620001f557620001f462000172565b5b60006200020584828501620001c5565b91505092915050565b611c24806200021e6000396000f3fe608060405234801561001057600080fd5b50600436106100ea5760003560e01c80638da5cb5b1161008c578063cc0c303911610066578063cc0c30391461022b578063d9cdd4be14610249578063f1476c3414610279578063f2fde38b14610295576100ea565b80638da5cb5b146101d3578063a1daf326146101f1578063c0f8f7c41461020f576100ea565b806366fab57c116100c857806366fab57c1461015b5780636d597d1314610179578063715018a6146101ab57806387b404e8146101b5576100ea565b80633013ce29146100ef578063404ebf6c1461010d5780635ee1be911461013f575b600080fd5b6100f76102b1565b6040516101049190610f2a565b60405180910390f35b61012760048036038101906101229190610f8f565b6102d7565b60405161013693929190611088565b60405180910390f35b61015960048036038101906101549190610f8f565b6103b6565b005b6101636105c1565b60405161017091906110d5565b60405180910390f35b610193600480360381019061018e919061111c565b6105c6565b6040516101a29392919061115c565b60405180910390f35b6101b361060a565b005b6101bd61061e565b6040516101ca91906110d5565b60405180910390f35b6101db610626565b6040516101e89190611193565b60405180910390f35b6101f961064f565b60405161020691906110d5565b60405180910390f35b610229600480360381019061022491906112e3565b610655565b005b610233610793565b60405161024091906110d5565b60405180910390f35b610263600480360381019061025e9190610f8f565b610798565b60405161027091906110d5565b60405180910390f35b610293600480360381019061028e9190610f8f565b610848565b005b6102af60048036038101906102aa919061133f565b610c86565b005b600260009054906101000a900473ffffffffffffffffffffffffffffffffffffffff1681565b60036020528060005260406000206000915090508060000160009054906101000a900473ffffffffffffffffffffffffffffffffffffffff16908060010180546103209061139b565b80601f016020809104026020016040519081016040528092919081815260200182805461034c9061139b565b80156103995780601f1061036e57610100808354040283529160200191610399565b820191906000526020600020905b81548152906001019060200180831161037c57829003601f168201915b5050505050908060020160009054906101000a900460ff16905083565b6103be610d09565b6003600082815260200190815260200160002060020160009054906101000a900460ff16610421576040517f08c379a000000000000000000000000000000000000000000000000000000000815260040161041890611418565b60405180910390fd5b600460003373ffffffffffffffffffffffffffffffffffffffff1673ffffffffffffffffffffffffffffffffffffffff168152602001908152602001600020600082815260200190815260200160002060020160009054906101000a900460ff16156104c2576040517f08c379a00000000000000000000000000000000000000000000000000000000081526004016104b990611484565b60405180910390fd5b604051806060016040528042815260200142815260200160011515815250600460003373ffffffffffffffffffffffffffffffffffffffff1673ffffffffffffffffffffffffffffffffffffffff1681526020019081526020016000206000838152602001908152602001600020600082015181600001556020820151816001015560408201518160020160006101000a81548160ff021916908315150217905550905050803373ffffffffffffffffffffffffffffffffffffffff167f452eff443d40b88dbd9367ac2d75368276f6eb885d506ac94697600817498c1d426040516105ae91906110d5565b60405180910390a36105be610d58565b50565b601481565b6004602052816000526040600020602052806000526040600020600091509150508060000154908060010154908060020160009054906101000a900460ff16905083565b610612610d61565b61061c6000610ddf565b565b6301c9c38081565b60008060009054906101000a900473ffffffffffffffffffffffffffffffffffffffff16905090565b60055481565b61065d610d61565b60405180606001604052808373ffffffffffffffffffffffffffffffffffffffff1681526020018281526020016001151581525060036000600554815260200190815260200160002060008201518160000160006101000a81548173ffffffffffffffffffffffffffffffffffffffff021916908373ffffffffffffffffffffffffffffffffffffffff16021790555060208201518160010190816107029190611646565b5060408201518160020160006101000a81548160ff0219169083151502179055509050508173ffffffffffffffffffffffffffffffffffffffff166005547f79fe0d0fc9d0e6b7ef6d77bb256fb06879bea6c65e2ee68c4cf0f5f3d1a8977b8360405161076f9190611718565b60405180910390a36005600081548092919061078a90611769565b91905055505050565b605081565b600080600460003373ffffffffffffffffffffffffffffffffffffffff1673ffffffffffffffffffffffffffffffffffffffff168152602001908152602001600020600084815260200190815260200160002090508060020160009054906101000a900460ff1661080d576000915050610843565b600081600101544261081f91906117b1565b9050610e106301c9c3808261083491906117e5565b61083e9190611856565b925050505b919050565b610850610d09565b6000600460003373ffffffffffffffffffffffffffffffffffffffff1673ffffffffffffffffffffffffffffffffffffffff168152602001908152602001600020600083815260200190815260200160002090508060020160009054906101000a900460ff166108f5576040517f08c379a00000000000000000000000000000000000000000000000000000000081526004016108ec906118d3565b60405180910390fd5b600081600101544261090791906117b1565b90506000610e106301c9c3808361091e91906117e5565b6109289190611856565b90506000811115610c0c576000606460508361094491906117e5565b61094e9190611856565b90506000606460148461096191906117e5565b61096b9190611856565b9050600260009054906101000a900473ffffffffffffffffffffffffffffffffffffffff1673ffffffffffffffffffffffffffffffffffffffff166323b872dd33600360008a815260200190815260200160002060000160009054906101000a900473ffffffffffffffffffffffffffffffffffffffff16856040518463ffffffff1660e01b8152600401610a02939291906118f3565b6020604051808303816000875af1158015610a21573d6000803e3d6000fd5b505050506040513d601f19601f82011682018060405250810190610a459190611956565b610a84576040517f08c379a0000000000000000000000000000000000000000000000000000000008152600401610a7b906119cf565b60405180910390fd5b600260009054906101000a900473ffffffffffffffffffffffffffffffffffffffff1673ffffffffffffffffffffffffffffffffffffffff166323b872dd33610acb610626565b846040518463ffffffff1660e01b8152600401610aea939291906118f3565b6020604051808303816000875af1158015610b09573d6000803e3d6000fd5b505050506040513d601f19601f82011682018060405250810190610b2d9190611956565b610b6c576040517f08c379a0000000000000000000000000000000000000000000000000000000008152600401610b6390611a3b565b60405180910390fd5b6003600087815260200190815260200160002060000160009054906101000a900473ffffffffffffffffffffffffffffffffffffffff1673ffffffffffffffffffffffffffffffffffffffff163373ffffffffffffffffffffffffffffffffffffffff167fa6c1325e03b867ee45303c64111dc7e52670f1da44597390374b5210cda6508d8584604051610c01929190611a5b565b60405180910390a350505b60008360020160006101000a81548160ff021916908315150217905550833373ffffffffffffffffffffffffffffffffffffffff167f4c5544e8351f9ffdf338d48943ea1db0b4c3627430bec6932507ca9a71e89d2b83604051610c7091906110d5565b60405180910390a3505050610c83610d58565b50565b610c8e610d61565b600073ffffffffffffffffffffffffffffffffffffffff168173ffffffffffffffffffffffffffffffffffffffff1603610cfd576040517f08c379a0000000000000000000000000000000000000000000000000000000008152600401610cf490611af6565b60405180910390fd5b610d0681610ddf565b50565b600260015403610d4e576040517f08c379a0000000000000000000000000000000000000000000000000000000008152600401610d4590611b62565b60405180910390fd5b6002600181905550565b60018081905550565b610d69610ea3565b73ffffffffffffffffffffffffffffffffffffffff16610d87610626565b73ffffffffffffffffffffffffffffffffffffffff1614610ddd576040517f08c379a0000000000000000000000000000000000000000000000000000000008152600401610dd490611bce565b60405180910390fd5b565b60008060009054906101000a900473ffffffffffffffffffffffffffffffffffffffff169050816000806101000a81548173ffffffffffffffffffffffffffffffffffffffff021916908373ffffffffffffffffffffffffffffffffffffffff1602179055508173ffffffffffffffffffffffffffffffffffffffff168173ffffffffffffffffffffffffffffffffffffffff167f8be0079c531659141344cd1fd0a4f28419497f9722a3daafe3b4186f6b6457e060405160405180910390a35050565b600033905090565b600073ffffffffffffffffffffffffffffffffffffffff82169050919050565b6000819050919050565b6000610ef0610eeb610ee684610eab565b610ecb565b610eab565b9050919050565b6000610f0282610ed5565b9050919050565b6000610f1482610ef7565b9050919050565b610f2481610f09565b82525050565b6000602082019050610f3f6000830184610f1b565b92915050565b6000604051905090565b600080fd5b600080fd5b6000819050919050565b610f6c81610f59565b8114610f7757600080fd5b50565b600081359050610f8981610f63565b92915050565b600060208284031215610fa557610fa4610f4f565b5b6000610fb384828501610f7a565b91505092915050565b6000610fc782610eab565b9050919050565b610fd781610fbc565b82525050565b600081519050919050565b600082825260208201905092915050565b60005b83811015611017578082015181840152602081019050610ffc565b60008484015250505050565b6000601f19601f8301169050919050565b600061103f82610fdd565b6110498185610fe8565b9350611059818560208601610ff9565b61106281611023565b840191505092915050565b60008115159050919050565b6110828161106d565b82525050565b600060608201905061109d6000830186610fce565b81810360208301526110af8185611034565b90506110be6040830184611079565b949350505050565b6110cf81610f59565b82525050565b60006020820190506110ea60008301846110c6565b92915050565b6110f981610fbc565b811461110457600080fd5b50565b600081359050611116816110f0565b92915050565b6000806040838503121561113357611132610f4f565b5b600061114185828601611107565b925050602061115285828601610f7a565b9150509250929050565b600060608201905061117160008301866110c6565b61117e60208301856110c6565b61118b6040830184611079565b949350505050565b60006020820190506111a86000830184610fce565b92915050565b600080fd5b600080fd5b7f4e487b7100000000000000000000000000000000000000000000000000000000600052604160045260246000fd5b6111f082611023565b810181811067ffffffffffffffff8211171561120f5761120e6111b8565b5b80604052505050565b6000611222610f45565b905061122e82826111e7565b919050565b600067ffffffffffffffff82111561124e5761124d6111b8565b5b61125782611023565b9050602081019050919050565b82818337600083830152505050565b600061128661128184611233565b611218565b9050828152602081018484840111156112a2576112a16111b3565b5b6112ad848285611264565b509392505050565b600082601f8301126112ca576112c96111ae565b5b81356112da848260208601611273565b91505092915050565b600080604083850312156112fa576112f9610f4f565b5b600061130885828601611107565b925050602083013567ffffffffffffffff81111561132957611328610f54565b5b611335858286016112b5565b9150509250929050565b60006020828403121561135557611354610f4f565b5b600061136384828501611107565b91505092915050565b7f4e487b7100000000000000000000000000000000000000000000000000000000600052602260045260246000fd5b600060028204905060018216806113b357607f821691505b6020821081036113c6576113c561136c565b5b50919050565b7f4d6f766965206e6f742061637469766500000000000000000000000000000000600082015250565b6000611402601083610fe8565b915061140d826113cc565b602082019050919050565b60006020820190508181036000830152611431816113f5565b9050919050565b7f416c72656164792073747265616d696e67000000000000000000000000000000600082015250565b600061146e601183610fe8565b915061147982611438565b602082019050919050565b6000602082019050818103600083015261149d81611461565b9050919050565b60008190508160005260206000209050919050565b60006020601f8301049050919050565b600082821b905092915050565b6000600883026115067fffffffffffffffffffffffffffffffffffffffffffffffffffffffffffffffff826114c9565b61151086836114c9565b95508019841693508086168417925050509392505050565b600061154361153e61153984610f59565b610ecb565b610f59565b9050919050565b6000819050919050565b61155d83611528565b6115716115698261154a565b8484546114d6565b825550505050565b600090565b611586611579565b611591818484611554565b505050565b5b818110156115b5576115aa60008261157e565b600181019050611597565b5050565b601f8211156115fa576115cb816114a4565b6115d4846114b9565b810160208510156115e3578190505b6115f76115ef856114b9565b830182611596565b50505b505050565b600082821c905092915050565b600061161d600019846008026115ff565b1980831691505092915050565b6000611636838361160c565b9150826002028217905092915050565b61164f82610fdd565b67ffffffffffffffff811115611668576116676111b8565b5b611672825461139b565b61167d8282856115b9565b600060209050601f8311600181146116b0576000841561169e578287015190505b6116a8858261162a565b865550611710565b601f1984166116be866114a4565b60005b828110156116e6578489015182556001820191506020850194506020810190506116c1565b8683101561170357848901516116ff601f89168261160c565b8355505b6001600288020188555050505b505050505050565b600060208201905081810360008301526117328184611034565b905092915050565b7f4e487b7100000000000000000000000000000000000000000000000000000000600052601160045260246000fd5b600061177482610f59565b91507fffffffffffffffffffffffffffffffffffffffffffffffffffffffffffffffff82036117a6576117a561173a565b5b600182019050919050565b60006117bc82610f59565b91506117c783610f59565b92508282039050818111156117df576117de61173a565b5b92915050565b60006117f082610f59565b91506117fb83610f59565b925082820261180981610f59565b915082820484148315176118205761181f61173a565b5b5092915050565b7f4e487b7100000000000000000000000000000000000000000000000000000000600052601260045260246000fd5b600061186182610f59565b915061186c83610f59565b92508261187c5761187b611827565b5b828204905092915050565b7f4e6f206163746976652073657373696f6e000000000000000000000000000000600082015250565b60006118bd601183610fe8565b91506118c882611887565b602082019050919050565b600060208201905081810360008301526118ec816118b0565b9050919050565b60006060820190506119086000830186610fce565b6119156020830185610fce565b61192260408301846110c6565b949350505050565b6119338161106d565b811461193e57600080fd5b50565b6000815190506119508161192a565b92915050565b60006020828403121561196c5761196b610f4f565b5b600061197a84828501611941565b91505092915050565b7f43726561746f72207472616e73666572206661696c6564000000000000000000600082015250565b60006119b9601783610fe8565b91506119c482611983565b602082019050919050565b600060208201905081810360008301526119e8816119ac565b9050919050565b7f506c6174666f726d207472616e73666572206661696c65640000000000000000600082015250565b6000611a25601883610fe8565b9150611a30826119ef565b602082019050919050565b60006020820190508181036000830152611a5481611a18565b9050919050565b6000604082019050611a7060008301856110c6565b611a7d60208301846110c6565b9392505050565b7f4f776e61626c653a206e6577206f776e657220697320746865207a65726f206160008201527f6464726573730000000000000000000000000000000000000000000000000000602082015250565b6000611ae0602683610fe8565b9150611aeb82611a84565b604082019050919050565b60006020820190508181036000830152611b0f81611ad3565b9050919050565b7f5265656e7472616e637947756172643a207265656e7472616e742063616c6c00600082015250565b6000611b4c601f83610fe8565b9150611b5782611b16565b602082019050919050565b60006020820190508181036000830152611b7b81611b3f565b9050919050565b7f4f776e61626c653a2063616c6c6572206973206e6f7420746865206f776e6572600082015250565b6000611bb8602083610fe8565b9150611bc382611b82565b602082019050919050565b60006020820190508181036000830152611be781611bab565b905091905056fea2646970667358221220e27ad6d8273385c750f0f306175ebe93a201a34f31ae44f00eb8ad304123536064736f6c63430008130033",
  "linkReferences": {},
  "deployedLinkReferences": {}
}